:100000000C949F000C94EC5A0C943E560C945C4358
:100010000C94FB490C94EC5A0C94EC5A0C94EC5A4A
:100020000C94EC5A0C94EC5A0C94EC5A0C94EC5A38
:100030000C94EC5A0C94EC5A0C94EC5A0C94AA4C78
:100040000C94EC5A0C94EC5A0C94EC5A0C94EC5A18
:100050000C94EC5A0C94EC5A0C942F560C94274A9E
:100060000C94EC5A0C94EC5A0C94EC5A0C94EC5AF8
:100070000C94EC5A0C94B5340C94EC5A0C94D54A6C
:100080000C94FE4A0C9494520C94EC5A0C94EC5A36
:10009000280030D18030D130FE00B63030FE31241F
:1000A000803124314800B65D314831898031893151
:1000B000F600B68131F63208803208321800B6EE0A
:1000C00032183236803236324400B6FE3244325173
:1000D00080325132E700B70C32E7333780333733A1
:1000E0006700B7A23367336F80336F337300B7D2C3
:1000F00033733387803387338B00B7D6338B33BB6F
:100100008033BB33BF00B7DA33BF33CD8033CD3359
:10011000CF00B7DE33CF33D88033D833D90046E5AC
:1001200033D933E78033E733E800673F33E833EB15
:100130008033EB33EC00982933EC33F48000112446
:100140001FBECFEFCDBFDFE3DEBFE0E9F0E041E06F
:1001500017C0B591A59135912591059107FD0CC06A
:1001600095918591EF01F92FE82F05900D92A21737
:10017000B307D9F7FE0104C01D92A217B307E1F738
:10018000ED33F40731F70E949E590C94C700F894A0
:02019000FFCF9F
:100192002F923F924F925F926F927F928F929F9295
:1001A200AF92BF92CF92DF92EF92FF920F931F9383
:1001B200CF93DF93CDB7DEB7CE54D140CDBFDEBFF4
:1001C200211531054105510509F441C4CB5BDE4FD0
:1001D2006883C554D140CA5BDE4F7883C654D14090
:1001E2000024369527950794369527950794322F44
:1001F200202DCB5BDE4FC880D980C554D140C20EC2
:10020200D31EC55BDE4FC882D982CB54D1408E014A
:100212000F5B1F4FCF5DDE4F08831983C152D14060
:100222009E012F533F4FCD5DDE4F28833983C3524A
:10023200D140AC0148575F4FC95BDE4F48835983B9
:10024200C754D14061E071E06C0F7D1F605E7F4F4B
:10025200C35BDE4F68837983CD54D140CE010196D2
:100262001C01FC01CB5BDE4FA881B981C554D14092
:100272008C91838311968C911197828312968C9123
:100282001297818313968C911397808314963496D8
:10029200CF5DDE4FC880D980C152D140EC15FD053B
:1002A20039F7FE013196CB5DDE4FE883F983C55203
:1002B200D140CB5DDE4F28813981C552D140D90171
:1002C20014964D915D916D917C911797D8968D9171
:1002D2009D910D90BC91A02DF9013496CB5DDE4F1E
:1002E200E883F983C552D1402A013B01E7E07694C5
:1002F200679457944794EA95D1F76A017B01F9E133
:10030200CC0CDD1CEE1CFF1CFA95D1F74C285D28A5
:100312006E287F286A017B011EE0CC0CDD1CEE1CDE
:10032200FF1C1A95D1F74A015B0102E1B694A7942A
:10033200979487940A95D1F7C828D928EA28FB28E8
:10034200C424D524E624F724E3E0769567955795EF
:100352004795EA95D1F74C255D256E257F25F90154
:10036200C080D180E280F380CB5DDE4FE881F981ED
:10037200C552D14000A111A122A133A10C0D1D1D16
:100382002E1D3F1D040F151F261F371F6C017D01F7
:100392004FE0CC0CDD1CEE1CFF1C4A95D1F7AC01E2
:1003A200BD01032E31E176956795579547953A95AC
:1003B200D1F7302D46015701842A952AA62AB72A59
:1003C2006C017D014DE0CC0CDD1CEE1CFF1C4A953E
:1003D200D1F7AC01BD01032E33E1769567955795B0
:1003E20047953A95D1F7302D4C295D296E297F2901
:1003F20075016401C426D526E626F726AC01BD01A7
:100402008AE076956795579547958A95D1F7D701F2
:10041200C60184279527A627B727800F911FA21F01
:10042200B31F84AF95AFA6AFB7AFCD5DDE4FC88027
:10043200D980C352D140EC15FD0509F03ACFC95B12
:10044200DE4FE880F980C754D140C75BDE4FE882B7
:10045200F982C954D140FE01EF5FFE4FD701C35B61
:10046200DE4F88819981CD54D1404D915D916D913E
:100472007D9141935193619371938E179F07A9F7D1
:10048200CF5FDE4F488059806A807B80C150D14067
:10049200CB5FDE4F088119812A813B81C550D14053
:1004A200CF5CDE4F088319832A833B83C153D1403B
:1004B200C75FDE4F288139814A815B81C950D140B3
:1004C200C35DDE4F288339834A835B83CD52D1409B
:1004D200CF5EDE4F88809980AA80BB80C151D14017
:1004E200CB5EDE4F488159816A817B81C551D14003
:1004F200C75CDE4F488359836A837B83C953D140EB
:10050200C75EDE4F688179818A819B81C951D14062
:10051200CB5CDE4F688379838A839B83C553D1404A
:10052200C35EDE4F88819981AA81BB81CD51D140C2
:10053200CB5DDE4F88839983AA83BB83C552D140AA
:10054200C35FDE4FC880D980EA80FB80CD50D140A6
:10055200CF5BDE4FC882D982EA82FB82C154D1408E
:10056200EAE9F2E918E9E12E1FE2F12E0AE812E4C3
:10057200C35CDE4FE882F9820A831B83CD53D140EC
:1005820066C0C190D190E190F190C35CDE4FC88209
:10059200D982EA82FB82CD53D140C35DDE4F4881CE
:1005A20059816A817B81CD52D140CF5BDE4F488336
:1005B20059836A837B83C154D140CB5CDE4F68810F
:1005C20079818A819B81C553D140CB5DDE4F68839F
:1005D20079838A839B83C552D140C75CDE4F888171
:1005E2009981AA81BB81C953D140CB5CDE4F8883FC
:1005F2009983AA83BB83C553D140C75CDE4F8882EF
:100602009982AA82BB82C953D140C75DDE4F8880DE
:100612009980AA80BB80C952D140CF5CDE4FC8808E
:10062200D980EA80FB80C153D140C35DDE4FC882CE
:10063200D982EA82FB82CD52D140CF5CDE4F488222
:1006420059826A827B82C153D140280139017501E6
:1006520064018AE1CC0CDD1CEE1CFF1C8A95D1F7EB
:10066200D501C40126E0B695A795979587952A9559
:10067200D1F78C299D29AE29BF299501840145E135
:10068200000F111F221F331F4A95D1F7B501A40194
:10069200032E3BE076956795579547953A95D1F7A6
:1006A200302D402B512B622B732B6C017D01C42604
:1006B200D526E626F726B501A401440F551F661F6D
:1006C200771F440F551F661F771F440F551F661F64
:1006D200771F440F551F661F771F440F551F661F54
:1006E200771F440F551F661F771F440F551F661F44
:1006F200771F95018401A9E13695279517950795EE
:10070200AA95D1F7402B512B622B732B4C255D25DB
:100712006E257F25D501C40180959095A095B09551
:10072200CB5CDE4F088119812A813B81C553D140C0
:1007320080239123A223B323C75CDE4FC880D980D4
:10074200EA80FB80C953D140C820D920EA20FB208F
:10075200C826D926EA26FB264C0D5D1D6E1D7F1D7F
:10076200D1010D911D912D913D911D01400F511F00
:10077200621F731FCB5DDE4F88819981AA81BB8185
:10078200C552D140840F951FA61FB71FC35CDE4F11
:10079200C880D980EA80FB80CD53D1408C0D9D1D4D
:1007A200AE1DBF1DCF5BDE4FE880F9800A811B8141
:1007B200C154D140E80EF91E0A1F1B1FC75DDE4F50
:1007C200E882F9820A831B83C952D14093018201D4
:1007D2004EE1000F111F221F331F4A95D1F7B301BB
:1007E200A2017695679557954795769567955795A2
:1007F2004795402B512B622B732B930182010F2EB5
:10080200F3E1000F111F221F331FFA95D1F7F02DCC
:10081200730162010B2EBDE0F694E794D794C7945E
:10082200BA95D1F7B02DC02AD12AE22AF32AC426DA
:10083200D526E626F726B301A20126E1769567952D
:10084200579547952A95D1F7930182010F2EFAE029
:10085200000F111F221F331FFA95D1F7F02D402BE5
:10086200512B622B732B970186010427152726270C
:100872003727CB5DDE4F088319832A833B83C5521A
:10088200D140C35DDE4F088119812A813B81CD525F
:10089200D140CF5CDE4F488159816A817B81C1534F
:1008A200D140042715272627372704211521262181
:1008B2003721C35DDE4FC880D980EA80FB80CD52EC
:1008C200D1404C215D216E217F2104271527262747
:1008D2003727CB5DDE4F488159816A817B81C552C2
:1008E200D140040F151F261F371F080F191F2A1F7B
:1008F2003B1F66E973E96E177F0709F042CECB5CB6
:10090200DE4F88819981AA81BB81C553D140C35EE4
:10091200DE4F88839983AA83BB83CD51D140C75CC4
:10092200DE4FC880D980EA80FB80C953D140C75EC0
:10093200DE4FC882D982EA82FB82C951D140CB5EA6
:10094200DE4F88829982AA82BB82C551D140C75D9F
:10095200DE4F488159816A817B81C952D140CF5E85
:10096200DE4F488359836A837B83C151D140C35D83
:10097200DE4F688179818A819B81CD52D140C35FEC
:10098200DE4F688379838A839B83CD50D140CF5CCD
:10099200DE4F88819981AA81BB81C153D140C75F53
:1009A200DE4F88839983AA83BB83C950D140CB5F32
:1009B200DE4F488259826A827B82C550D140DE0175
:1009C200AF5FBE4F0D931D932D933D93C95BDE4FD9
:1009D200E881F981C754D14060E070E0AD01C75BA6
:1009E200DE4F88819981C954D14006C0DA010D9148
:1009F2001D912D913D91AD01C190D190E190F19069
:100A02000C0D1D1D2E1D3F1DDC010D931D932D93FD
:100A12003D93CD016F5F7F4F6830710539F7CB5B36
:100A2200DE4FE881F981C554D140E05CFF4FCB5BDA
:100A3200DE4FE883F983C554D140C55BDE4FC880E1
:100A4200D980CB54D140EC15FD0509F007CCC25B2F
:100A5200DE4FCDBFDEBFDF91CF911F910F91FF908F
:100A6200EF90DF90CF90BF90AF909F908F907F904C
:0C0A72006F905F904F903F902F90089580
:100A7E000F931F93CF93DF9300D0CDB7DEB78C01CA
:100A8E001092DB338091D933823008F45DC083300D
:100A9E0009F053C09091DE33992309F44EC0492FCB
:100AAE0050E090FD4AC090E09F5F9A01092E02C06F
:100ABE00359527950A94E2F720FFF6CF21E030E036
:100ACE0001C0220F9A95EAF7283009F41BC208F4E8
:100ADE00D9C0203109F497C1203279F59091DC33D9
:100AEE0091FF2BC08091DC338D7F8093DC33198294
:100AFE001A82C8010E94E558C80108960E94E5585E
:100B0E0089818170806C8E7F89831A8241E050E0EA
:100B1E00BE016F5F7F4FC8010E940E3D41E050E065
:100B2E00BE016E5F7F4FC8010E940E3DC8010E943C
:100B3E00BA4F81118DC28091D9330F900F90DF91F2
:100B4E00CF911F910F9108959091DE3390FFF5CFC5
:100B5E00C8010E94E558C80108960E94E55841E078
:100B6E0050E06CE671E3C8010E940E3D2091873182
:100B7E0030918831822F8F77220F232F221F330B34
:100B8E0031952115310509F01DC1EDE6F1E341E086
:100B9E0050E080836DE671E3C8010E940E3D4AE08D
:100BAE0050E061E771E3C8010E940E3D42E050E063
:100BBE006BE771E3C8010E940E3D60917D3170912B
:100BCE007E31FB0101900020E9F73197AF01461B02
:100BDE00570BC8010E940E3D809183319091843154
:100BEE00892B31F480917F3190918031892B51F195
:100BFE0042E050E06FE771E3C8010E940E3D409164
:100C0E007F3150918031542745275427609181318F
:100C1E0070918231C8010E940E3D42E050E063E8BF
:100C2E0071E3C8010E940E3D409183315091843191
:100C3E005427452754276091853170918631C8011C
:100C4E000E940E3DC8010E94BA4F882309F4D7C0F6
:100C5E008091DE338E7F8093DE3385E08093DB33AD
:100C6E0040E355E760E070E083ED92E30E94E930E7
:100C7E0082E08093D9338091DC338E7F8093DC3396
:100C8E0082E05BCF243009F058CF89EC92E30E94CA
:100C9E001053C8010E94E558C80108960E94E558F5
:100CAE0041E050E068E172E3C8010E940E3D2091E0
:100CBE00263230912732822F8F77220F232F221F39
:100CCE00330B31952115310509F4A4C140E0E42F11
:100CDE00F0E0E75EFD4C80688083E1E0E40F822F58
:100CEE008F77220F232F221F330B319521153105BC
:100CFE0009F083C04E5F50E0F0E0E75EFD4C80836C
:100D0E0069E172E3C8010E940E3D42E050E06DE1E0
:100D1E0072E3C8010E940E3D40911D3250911E3269
:100D2E0054274527542760911F3270912032C801F5
:100D3E000E940E3D809118328670823009F479C17E
:100D4E004091233250E06091243270912532C801D7
:100D5E000E940E3D8091DE3382FD04C080911832D8
:100D6E0083FF54C1C8010E94BA4F882309F44EC1B3
:100D7E008091DE338B7F8093DE33809118328670C4
:100D8E00823029F48091DD3380628093DD3385E0FB
:100D9E008093DB338091793190917A31009709F409
:100DAE00CACE9827892798279C0121503109A8EE91
:100DBE00B3E00E944D56AB01BC0189EC92E30E9458
:100DCE00E930B9CE40E0E42FF0E0E359FE4C806804
:100DDE008083E1E0E40F822F8F77220F232F221FD3
:100DEE00330B31952115310531F44E5F50E0F0E0B3
:100DFE00E359FE4CCECE4E2FE6CF4E2F68CF86E077
:100E0E008093DB3398CEC8010E94E558C80108963E
:100E1E000E94E55841E050E064E472E3C8010E948C
:100E2E000E3D20914F3230915032822F8F77220F0C
:100E3E00232F221F330B31952115310509F4F4C0F0
:100E4E0040E0E42FF0E0EB5BFD4C80688083E1E056
:100E5E00E40F822F8F77220F232F221F330B319512
:100E6E002115310509F04CC04E5F50E0F0E0EB5B10
:100E7E00FD4C808365E472E3C8010E940E3D41E0A3
:100E8E0050E06AE472E3C8010E940E3D41E050E07A
:100E9E0069E472E3C8010E940E3D42E050E06BE44B
:100EAE0072E3C8010E940E3D40914B3250914C327C
:100EBE0054274527542760914D3270914E32C80108
:100ECE000E940E3DC8010E94BA4F882309F462CFDA
:100EDE008091DE338F7E8093DE338091DD338860A8
:100EEE008093DD338091DC338F7E8093DC3340E35F
:100EFE0055E760E070E08BEA92E30E94E93047CF5D
:100F0E004E2F9FCFC8010E94E558C80108960E9437
:100F1E00E55841E050E068E272E3C8010E940E3DE0
:100F2E002091343230913532822F8F77220F232F3A
:100F3E00221F330B31952115310509F470C040E0A5
:100F4E00E42FF0E0E75DFD4C80688083E1E0E40F84
:100F5E00822F8F77220F232F221F330B31952115CE
:100F6E00310509F051C04E5F50E0F0E0E75DFD4CF9
:100F7E00808369E272E3C8010E940E3D41E050E0B9
:100F8E006EE272E3C8010E940E3D41E050E06DE258
:100F9E0072E3C8010E940E3D42E050E06FE272E340
:100FAE00C8010E940E3D40912F325091303254278D
:100FBE00452754276091313270913232C8010E9418
:100FCE000E3D41E050E063E372E3C8010E940E3D26
:100FDE00C8010E94BA4F882309F4DCCE8091DE331B
:100FEE00877F8093DE338091DD3384608093DD33A1
:100FFE008091DC33877F8093DC3340E355E760E0FC
:10100E0070E085EB92E379CF4E2F9ACF1092D933C1
:10101E0080E093CDE9E1F2E341E050E070CEE9E209
:10102E00F2E341E050E0A4CFE5E4F2E341E050E02A
:10103E0020CF41E050E062E272E3C8010E940E3D13
:10104E0041E050E061E272E3C8010E940E3D78CEAD
:10105E008091DE338F7D8093DE338091DD3380612E
:10106E008093DD3340E355E760E070E08FEB92E371
:08107E000E94E93085E0C4CEB8
:101086002F923F924F925F926F927F928F929F9292
:10109600AF92BF92CF92DF92EF92FF920F931F9380
:1010A600CF93DF93CDB7DEB7C455D109CDBFDEBF31
:1010B6008B0169017A01813409F45EC0843509F433
:1010C6005BC0823409F461C1833409F471C084348D
:1010D60009F42FC18B3409F42CC18A3409F4A2C156
:1010E600863409F4D2C0883409F46BC18D3409F40E
:1010F600CCC0853409F4B2C1873409F465C18C3497
:1011060009F4ACC1823509F524E130E0AE014F5F48
:101116005F4FC701B6010E94D243811116C04D81AF
:101126005E816F81788580917F3390918033A09125
:101136008133B0918233481759076A077B0709F450
:10114600E5C11092C5331092C633CC5ADF4FCDBFDE
:10115600DEBFDF91CF911F910F91FF90EF90DF904F
:10116600CF90BF90AF909F908F907F906F905F9041
:101176004F903F902F90089524E030E0AE014F5FEE
:101186005F4FC701B6010E94D2438111DECF8A812B
:1011960026968FAF2697E091C933F091CA333097E0
:1011A600A1F2AE014B5B5F4F61E089810995CDCF1E
:1011B6008E010B5B1F4F2CE030E0A801C701B60182
:1011C6000E94D2438111C1CFD80119968C911997EB
:1011D60087FD39C0482F082E000C550B18962C9108
:1011E60018973BE02303F0011124EC58F04D91854C
:1011F600349FF001359FF00D1124EC58F04D918786
:1012060091E090871A962D913C911B9728503109B1
:10121600268337836091CB337091CC339B012F5F4C
:101226003F4F19F49B012E5F3F4F2093CB333093F2
:10123600CC339BE0949FF001959FF00D1124EC5860
:10124600F04D24833583898382E090E08A839B83F3
:10125600F801828193818C839D8384819581A68107
:10126600B7818E839F83A887B987E091C933F091B0
:10127600CA33309709F469CFAE014F5F5F4F64E020
:10128600D80118968C91099560CF96E0A92E20E199
:1012960030E0AE014B5B5F4FC701B6010E94D243FF
:1012A600811153CF6296BFAC629765962EAD3FAD66
:1012B6006597AB2DBBE0AB02F0011124EC58F04D65
:1012C60012862F964EAD5FAD2F9761966EAD7FADB0
:1012D600619729968EAD9FAD299789879A872D9616
:1012E6008CAD9DADAEADBFAD2D978B879C87AD8781
:1012F600BE87848195812817390709F026CF1416F1
:1013060015062CF44A014017510708F4A9C04B836F
:101316005C8319821A82E091C933F091CA333097FF
:1013260009F413CFAE014F5F5F4F6A2D8B2D0995E0
:101336000CCF24E030E0AE014F5F5F4FC701B6012E
:101346000E94D243811101CF89818E010B5B1F4F11
:10135600F80180839A81918391110CC09BE08902E8
:10136600F0011124EC58F04D2B813C8128503109B5
:1013760026833783E091C933F091CA33309709F455
:10138600E4CEA80165E00995E0CE24E030E0AE01A8
:101396004F5F5F4FC701B6010E94D2438111D5CE80
:1013A6008A8126968FAF2697E091C933F091CA338A
:1013B600309709F4CACEAE014B5B5F4F62E089817C
:1013C600F5CE89E0A82E63CF18E028E030E0AE0124
:1013D6004F5F5F4FC701B6010E94D2438111B5CE60
:1013E60089814D815E812B813C8127962EAF3FAF4F
:1013F60027979BE08902F0011124EC58F04D2481D7
:1014060035814217530709F0A0CEE091C933F09118
:10141600CA33309709F499CEAE014B5B5F4F612F0B
:10142600099593CE24E430E0AE014F5F5F4FC701CC
:10143600B6010E94D243811188CEE091C733F09164
:10144600C833309709F481CE25964CAD5DAD6EADAF
:101456007FAD2597CE010196099577CE17E0B5CFDA
:1014660080819181892B09F470CE82819381892BA9
:1014760009F46BCE8085813009F067CE26013701ED
:10148600460E571E611C711C4D835E837F016F01E2
:10149600E2E0CE0ED11C1701F8E02F0E311CD6016A
:1014A6000D911C918016910608F48401F701408184
:1014B60051819801C301B2010E94D243811145CEE8
:1014C600D7018D919C9189839A830B831C838D818F
:1014D6009E81801B910B8D839E83E091C933F09191
:1014E600CA33309731F0AE014F5F5F4F6A2D8B2DB7
:1014F6000995400E511E611C711CF10180818823E3
:1015060009F423CE801A910A51F61FCEE091C53315
:10151600F091C633309709F414CE29853A854B8568
:101526005C8569817A818B819C810989099509CEBF
:10153600CF92DF92EF92FF920F931F930E94534A2E
:101546000E94C3350E94B0538EEC91E30E94205A4C
:101556008EEC91E30E940D580E94B156811105C090
:1015660080910E28846080930E288EEC91E30E9471
:10157600753F8093622B882329F080910E28846022
:1015860080930E288EEC91E30E94205A8EEC91E314
:101596000E94975940E257E466E170E0C12CD12CD5
:1015A600760100E010E0980186B38074080F111DE3
:1015B600211D311D86B38072C80ED11CE11CF11CA1
:1015C600415051096109710979F7003913422B40DD
:1015D600310508F036C180E9C81683E2D8068BE0EB
:1015E600E806F10408F097C089E0EAE9F4EBA9E619
:1015F600BAE201900D928A95E1F78AE0E3EAF4EB0C
:10160600AAE8BAE201900D928A95E1F71F9282E06C
:101616008F938DEA94EB9F938F938FED9AE29F932E
:101626008F930E94E34D2AEFC22ED12CE12CF12C90
:10163600C0925233D0925333E0925433F0925533E2
:10164600C0925633D0925733E0925833F0925933C2
:1016560082E593E30E94041DC0924933D0924A3337
:10166600E0924B33F0924C33C0924D33D0924E33CE
:10167600E0924F33F092503389E493E30E94041DC5
:1016860010924033109241331092423310924333FA
:10169600C12CD12C7601C394C0924433D0924533E9
:1016A600E0924633F092473380E493E30E94041DB0
:1016B60010923733109238331092393310923A33EE
:1016C600C0923B33D0923C33E0923D33F0923E33AE
:1016D60087E393E30E94041D80910E2888608F7D26
:1016E600806480930E280F900F900F900F900F90AC
:1016F6000F9061E086E69AE50E94254F8EEC91E315
:101706000E94CD5844E650E060E070E08DED92E333
:101716000E94E93064C084EF91E0A0E0B0E08093DD
:10172600523390935333A0935433B09355338093ED
:10173600563390935733A0935833B093593382E579
:1017460093E30E94041D1092493310924A3310927B
:101756004B3310924C33C12CD12C7601C394C092DA
:101766004D33D0924E33E0924F33F092503389E4AA
:1017760093E30E94041D109240331092413310925D
:10178600423310924333C0924433D0924533E092B1
:101796004633F092473380E493E30E94041D10928F
:1017A6003733109238331092393310923A33C0924D
:1017B6003B33D0923C33E0923D33F0923E3387E3A5
:1017C60093E30E94041D80910E28877F80628F7BA1
:1017D60080930E2860E086E69AE50E94254F0E94D7
:1017E600C3358EEC91E39F938F9380EB94EB9F939D
:1017F6008F938EEF9AE29F938F930E94E34D64EB53
:1018060076E28EEF9AE20E94E85280E094E10E942E
:101816007F5A0E94BE5A8093CD339093CE338091E7
:1018260060048068809360040F900F900F900F9073
:101836000F900F901F910F91FF90EF90DF90CF9038
:1018460008958AEF90E0A0E0B0E080935233909341
:101856005333A0935433B0935533809356339093B8
:101866005733A0935833B093593382E593E30E94DC
:10187600041D1092493310924A3310924B33109242
:101886004C33C12CD12C7601C394C0924D33D092E7
:101896004E33E0924F33F092503389E493E30E9443
:1018A600041D10924033109241331092423310922D
:1018B6004333C0924433D0924533E0924633F0929C
:1018C600473380E493E30E94041D1092373310924D
:1018D60038331092393310923A33C0923B33D09258
:1018E6003C33E0923D33F0923E3387E393E30E942C
:1018F600041D80910E2888608F7D8F7B80930E2833
:02190600F8CE19
:10190800AF92BF92CF92DF92EF92FF921F93CF9345
:10191800DF93CDB7DEB72997CDBFDEBF7C0110922C
:10192800DB3319868091DC3382FD28C08091DC335B
:1019380083FD24C08091DC3384FD20C0F7018685B7
:1019480097851091D933892B59F01230E9F013306B
:1019580009F449C0113021F087E08093D93317E0AA
:10196800812F2996CDBFDEBFDF91CF911F91FF90C8
:10197800EF90DF90CF90BF90AF9008951092D93339
:10198800C7010E948E54DACF8091DC3380FD78C085
:10199800A0907931B0907A3183ED92E30E94105390
:1019A8006701F8E0CF0ED11C41E050E0BE01675F4F
:1019B8007F4FC6010E944B3BAC019985292F207FA0
:1019C800203209F42DC11093DB339093DA3340931E
:1019D800A1335093A2331092D933C7010E948E5479
:1019E8001091D933BDCF6701F8E0CF0ED11C41E08B
:1019F80050E0BE01675F7F4FC6010E944B3B89855F
:101A080082958F70893009F4BEC008F042C08330D7
:101A180009F469C0843021F7BE016F5F7F4FFB0175
:101A280011928A95E9F741E050E0C6010E94623AB6
:101A380041E050E0BE016E5F7F4FC6010E94623AEE
:101A480041E050E0BE016C5F7F4FC6010E94623AE0
:101A580041E050E0BE016D5F7F4FC6010E94623ACF
:101A68009B81809121329813BBCF9C818091223237
:101A78009813B6CF8091DD338F7D8093DD33B0CF5F
:101A88001092D933C7010E948E5481E08093DB33D2
:101A9800A7CF8B3061F18D3009F0A2CF8091DD3373
:101AA80084FF9ECF8091DC3382FD9ACF8FEB92E347
:101AB8000E94105319821A8241E050E0BE016F5F04
:101AC8007F4FC6010E94623A8091793190917A31B4
:101AD800892B29F08091DE3380628093DE33C60142
:101AE8000E94E5587DCFC7010E94241B79CF8091C1
:101AF800DD3383FF75CF8091DC3384FD71CF8BEAB2
:101B080092E30E941053BE016F5F7F4F84E0FB0198
:101B180011928A95E9F741E050E0C6010E94623AC5
:101B280041E050E0BE016E5F7F4FC6010E94623AFD
:101B38008A81823061F010E08091DD33877F809365
:101B4800DD33C6010E94E5581093D93309CF41E02F
:101B580050E0BE016D5F7F4FC6010E94623A41E0CE
:101B680050E0BE016C5F7F4FC6010E94623A9C81C3
:101B7800809149329813DFCF9B8180914A32981324
:101B8800DACF13E0D9CF8091DD3382FF29CF80915E
:101B9800DC3383FD25CF85EB92E30E941053BE0111
:101BA8006F5F7F4F88E0FB0111928A95E9F741E06A
:101BB80050E0C6010E94623A41E050E0BE016E5F0B
:101BC8007F4FC6010E94623A41E050E0BE016A5F61
:101BD8007F4FC6010E94623A41E050E0BE01695F52
:101BE8007F4FC6010E94623A9F8180912D329817DB
:101BF80029F010E08091DD338B7FA1CF9E81809109
:101C08002E329813F6CF41E050E0BE01685F7F4F57
:101C1800C6010E94623A8885803859F313E0EACFFA
:101C2800BE016F5F7F4F84E0FB0111928A95E9F74F
:101C380041E050E0C6010E94623A41E050E0BE0136
:101C48006E5F7F4FC6010E94623A41E050E0BE01DC
:101C58006D5F7F4FC6010E94623A41E050E0BE01CD
:101C68006C5F7F4FC6010E94623A8C8181110EC061
:101C7800BA24AB24BA2483E08093D933A114B104E5
:101C880061F413E084E08093DB336ACE1092D93399
:101C980083E08093DB3310E063CE8091DE33806293
:101CA8008093DE33950121503109A8EEB3E00E94FC
:101CB8004D56AB01BC0189EC92E30E94E9301091CA
:041CC800D933E0CF5D
:101CCC00ABE0B0E0ECE6FEE00C9414516C017B014F
:101CDC008A01FC0116821782838181FFCCC1CE015F
:101CEC0001963C01F6019381F70193FD859193FFD9
:101CFC0081917F01882309F4BAC1853239F493FDAF
:101D0C00859193FF81917F01853229F4B60190E092
:101D1C000E942043E7CF912C212C312CFFE1F315AD
:101D2C00D8F08B3279F038F4803279F08332A1F428
:101D3C00232D20611DC08D3261F0803369F4232D79
:101D4C00216016C0832D8260382EE32DE4603E2E78
:101D5C002AC0F32DF8601DC037FC2DC020ED280FD4
:101D6C002A3040F08E32B9F436FC81C1232D206428
:101D7C00322E19C036FE06C08AE0989E200D112422
:101D8C00922E11C0EAE02E9E200D1124222EF32D4E
:101D9C00F0623F2E08C08C3621F4832D8068382EDB
:101DAC0002C0883641F4F70193FD859193FF819130
:101DBC007F018111B3CF982F9F7D9554933028F4D8
:101DCC000C5F1F4F9FE399830DC0833631F083372F
:101DDC0071F0833509F059C021C0F80180818983E5
:101DEC000E5F1F4F88248394912C530113C028013C
:101DFC00F2E04F0E511CF801A080B18036FE03C0FA
:101E0C00692D70E002C06FEF7FEFC5010E94805713
:101E1C004C018201F32DFF773F2E16C0280122E0E2
:101E2C00420E511CF801A080B18036FE03C0692D12
:101E3C0070E002C06FEF7FEFC5010E9475574C0137
:101E4C00F32DF0683F2E820133FC1BC0822D90E0F5
:101E5C0088169906B0F4B60180E290E00E94204307
:101E6C002A94F4CFF50137FC859137FE81915F01FF
:101E7C00B60190E00E94204321102A9421E0821A9E
:101E8C0091088114910471F7E8C0843611F08936F9
:101E9C0041F5F80137FE07C0608171818281938121
:101EAC000C5F1F4F08C060817181072E000C880BDE
:101EBC00990B0E5F1F4FF32DFF763F2E97FF09C036
:101ECC0090958095709561957F4F8F4F9F4FF068DF
:101EDC003F2E2AE030E0A3010E94A033882E861802
:101EEC0045C0853731F4232D2F7EB22E2AE030E009
:101EFC0025C0932D997FB92E8F36C1F018F48835F3
:101F0C0079F0B5C0803719F0883721F0B0C0E92FCF
:101F1C00E061BE2EB4FE0DC0FB2DF460BF2E09C0D7
:101F2C0034FE0AC0292F2660B22E06C028E030E00D
:101F3C0005C020E130E002C020E132E0F801B7FE3C
:101F4C0007C060817181828193810C5F1F4F06C035
:101F5C006081718180E090E00E5F1F4FA3010E94B1
:101F6C00A033882E8618FB2DFF773F2E36FE0DC032
:101F7C00232D2E7FA22E891458F434FE0BC032FC74
:101F8C0009C0832D8E7EA82E05C0B82CA32C03C0AF
:101F9C00B82C01C0B92CA4FE0FC0FE01E80DF11D38
:101FAC008081803321F49A2D997EA92E09C0A2FE3E
:101FBC0006C0B394B39404C08A2D867809F0B39408
:101FCC00A3FC11C0A0FE06C0B21488F4280C922CFD
:101FDC009B180EC0B21460F4B60180E290E00E942F
:101FEC002043B394F7CFB21418F42B1802C0982CDA
:101FFC00212CA4FE10C0B60180E390E00E94204387
:10200C00A2FE17C0A1FC03C088E790E002C088E5DF
:10201C0090E0B6010CC08A2D867859F0A1FE02C062
:10202C008BE201C080E2A7FC8DE2B60190E00E9439
:10203C002043891438F4B60180E390E00E942043D9
:10204C009A94F7CF8A94F301E80DF11D8081B601C3
:10205C0090E00E9420438110F5CF222009F442CE5B
:10206C00B60180E290E00E9420432A94F6CFF6015C
:10207C008681978102C08FEF9FEF2B96E2E10C9443
:02208C005D51A4
:10208E00CF92DF92EF92FF92CF93DF938B3109F4D1
:10209E0077C0EB018C31E0F18C3209F18233C1F45F
:1020AE008EE09EEC0E94FB50811112C080910E2892
:1020BE0080FF09C089E792E30E94105380910E2899
:1020CE008E7F80930E2880910E288B7F80930E2812
:1020DE00DF91CF91FF90EF90DF90CF9008958881A0
:1020EE00813009F45CC0882309F4D3C0E0919533A4
:1020FE00F0919633309761F380910E2880FDE8CFF2
:10210E008881DF91CF91FF90EF90DF90CF9009946F
:10211E008930F1F6FB01ED59FF4F80818111D8CF47
:10212E00319780811F928F9382E29EEC9F938F93C3
:10213E008FED9AE29F938F930E94E34DBE0189E645
:10214E009AE20E94D659BE016F5D7F4F8AE89AE2ED
:10215E000E94D65981E08093D5330F900F900F9047
:10216E000F900F900F9040E050E0BA0187E992E394
:10217E00DF91CF91FF90EF90DF90CF900C94E930EC
:10218E00FB0180819181892B09F4A2CFCB01DF91D4
:10219E00CF91FF90EF90DF90CF900C94BC48809140
:1021AE00D53381112DC080910E28982F9A709830BA
:1021BE0009F44FC085FD03C00E94C35397CF809191
:1021CE000E288F7D80930E2888EE93E0A0E0B0E07D
:1021DE008093523390935333A0935433B09355332B
:1021EE008093563390935733A0935833B09359330B
:1021FE0083E080935A3382E593E30E94041DDCCF83
:10220E0087E992E30E9410531092D5338AEF90E043
:10221E00A0E0B0E08093523390935333A0935433A5
:10222E00B09355338093563390935733A0935833CE
:10223E00B093593382E593E30E94041D48EE53E0B8
:10224E0060E070E08DE892E30E94E9300E94325720
:10225E00AACF8AEF90E0A0E0B0E08093493390934C
:10226E004A33A0934B33B0934C3380934D339093BA
:10227E004E33A0934F33B093503389E493E30E94CF
:10228E00041D80910E288260877B806180930E28CA
:10229E0091CF1092403310924133109242331092EC
:1022AE004333C12CD12C7601C394C0924433D092C7
:1022BE004533E0924633F092473380E493E30E9435
:1022CE00041D109237331092383310923933109216
:1022DE003A33C0923B33D0923C33E0923D33F0928E
:1022EE003E3387E393E30E94041D80910E2886FF00
:1022FE0014C080910E288D7E886080930E2842E354
:10230E0050E060E070E089E792E30E94E93080914E
:10231E000E28816080930E28E9CE109249331092D8
:10232E004A3310924B3310924C33C0924D33D092AD
:10233E004E33E0924F33F092503389E493E30E9490
:10234E00041D8AEF90E0A0E0B0E0809352339093AA
:10235E005333A0935433B0935533809356339093A5
:10236E005733A0935833B093593382E593E30E94C9
:04237E00041DBFCFAC
:102382002F923F924F925F926F927F928F929F9283
:10239200AF92BF92CF92DF92EF92FF920F931F9371
:1023A200CF93DF9300D000D0CDB7DEB78B839C8371
:1023B2003B016A011901452B09F4FDC0892B09F47F
:1023C200FAC0232B09F4F7C00115110509F4F3C073
:1023D2009B01ABEABAEA0E944D56969587959C01FD
:1023E200220F331F820F931F41E050E068167906D7
:1023F20009F405C19301ABEABAEA0E944D569695DB
:1024020087959A01280F391F220F331F220F331F7E
:10241200F8016381662361F0862F837009F001C1A0
:1024220070E0C9010E946053660F771F260F371FA5
:102432002F5F3F4FF101808191818217930708F44A
:10244200E1C0F101108211826114710409F4EFC03C
:1024520019821A82E12CF12C812C912CF8016381D2
:10246200662301F181149104E9F070E0C70129812A
:102472003A81821B930B0E946053892B99F4F601D7
:10248200EE0DFF1D3DE03083F7013196EC0DFD1D91
:1024920082E0E80EF11C9AE09083E981FA8132969B
:1024A200E983FA835701FFEFAF1ABF0A26014E0CE8
:1024B2005F1CEB81FC818081B801869586950E9424
:1024C200054EF2018083EB81FC819081937092959D
:1024D200907F94012F5F3F4F2615370508F0BCC04F
:1024E2002701F2E04F0E511CAC0CBD1CEB81FC81AC
:1024F200818182958F70B801892B0E94054EF5016A
:102502008083EB81FC8191819F70990F990F9401D7
:102512002E5F3F4F5601A40CB51C2615370508F057
:102522008BC082818295869586958370B801892BAE
:102532000E94054EF50180835701F3E0AF0EB11CF6
:10254200AC0CBD1C24E0E20EF11CEB81FC8182810B
:10255200B8018F730E94054EF501808333E0830E2C
:10256200911C8B819C8103968B839C838614970498
:1025720008F474CF92E0E916F10408F45BC0C701D5
:102582000197F601E80FF91F2081222341F052C082
:10259200AC01415051092291211104C0CA0181307C
:1025A2009105B1F7F601E80FF91F1082F10180835E
:1025B200918380E00EC01F9282EE8F938AEE95E89F
:1025C2009F938F930E943F520F900F900F900F9006
:1025D20082EE2496CDBFDEBFDF91CF911F910F9186
:1025E200FF90EF90DF90CF90BF90AF909F908F9031
:1025F2007F906F905F904F903F902F90089540E0B2
:1026020050E0F8CE1F928DEE8F938EEA96E89F935C
:102612008F930E943F520F900F900F900F908DEE6C
:10262200D8CF1F9282EE8F9383E796E8C9CF80E0DE
:1026320090E0B8CFC701B6CFB801892F0E94054EEE
:10264200F5018083F8018281F7013396EC0DFD1DBF
:1026520024E0E20EF11C81CFAC0CBD1CB801892F25
:102662000E94054EF5018083F8018281F201828386
:02267200E9CFAE
:10267400CF92DF92EF92FF920F931F93CF93DF934A
:102684000E9497586B017C010E942A5A882309F4FE
:1026940065C02091833330918433409185335091C8
:1026A4008633C701B6010E940E5B1616170618067C
:1026B40019062CF5C0928333D0928433E09285338B
:1026C400F09286338EEC91E39F938F9388E594EB9D
:1026D4009F938F93CEEFD0E3DF93CF930E94E34D8C
:1026E40080910E280F900F900F900F900F900F90E5
:1026F40081FDBAC08091AC2E882309F49DC08091DD
:102704000E2883FD04C081FD7AC084FF55C082FD7C
:102714003EC01092373310923833109239331092EE
:102724003A3381E090E0A0E0B0E080933B339093B3
:102734003C33A0933D33B0933E3387E393E30E944D
:10274400041D64E670E080E090E0DF91CF911F917A
:102754000F91FF90EF90DF90CF9008951092403347
:1027640010924133109242331092433381E090E04F
:10277400A0E0B0E08093443390934533A093463374
:10278400B093473380E493E30E94041DB8CF81E003
:1027940090E0A0E0B0E08093373390933833A09377
:1027A4003933B0933A3310923B3310923C33109246
:1027B4003D3310923E33C1CF0E942A5A811186C004
:1027C40080910E2887FFA3CF8AEF90E0A0E0B0E0CD
:1027D4008093493390934A33A0934B33B0934C3353
:1027E40080934D3390934E33A0934F33B093503333
:1027F40089E493E30E94041D80910E2888CF81E030
:1028040090E0A0E0B0E08093523390935333A093D0
:102814005433B09355331092563310925733109269
:1028240058331092593382E593E30E94041D80913A
:102834000E2884FD6CCFC0CFECEAFEE201900020AC
:10284400E9F73197AF014C5A5E426CEA7EE28EEFB3
:1028540090E30E94255A8091F233882309F44BC0F7
:1028640081508093F2334BCF0E94372C8C010E940D
:10287400E35AC80164E670E00E9474539F938F93F7
:102884007F936F9383E69BE29F938F938CE694EB05
:102894009F938F930CEA1EE21F930F930E94E34DC4
:1028A400DF93CF9386E894EB9F938F930E943F52DC
:1028B4001F930F930E943F528AE090E00E94DD59DB
:1028C4008DB79EB740968DBF9EBF14CF81E090E038
:1028D400A0E0B0E08093493390934A33A0934B3304
:1028E400B0934C3310924D3310924E3310924F33B9
:1028F400109250337DCF84EF91E0A0E0B0E080935C
:10290400403390934133A0934233B093433332CF57
:102914008F929F92AF92BF92CF92DF92EF92FF92EB
:102924000F931F93CF93DF9300D0CDB7DEB7FC0195
:102934005B01892B51F0608171816115710529F06A
:10294400028113810115110581F482EE0F900F901D
:10295400DF91CF911F910F91FF90EF90DF90CF9077
:10296400BF90AF909F908F900895448155814115F9
:10297400510559F3CB01840F951F9C012150310956
:10298400D9012C912D3789F04F5F5F4F44835583D4
:102994002DE7DC012C93448155814115510509F43F
:1029A400DEC06081718102811381DB018C918E32E2
:1029B40009F4DEC0DB01119680E090E005C02D91A2
:1029C4002E3209F4C7C0C7017C012FEFE21AF20AC4
:1029D400E416F506A0F36A01CE18DF089601205C20
:1029E4003F4F220F331F220F331FABEABAEA0E9474
:1029F4004D56969587959C012D5F3F4F041B150BF3
:102A04000217130710F484EEA1CF4F018081918146
:102A1400BC016E0D7F1DA601800F911F0E945A54A8
:102A2400D40112962D913C91139729833A83ED9109
:102A3400FC911197AF014E0D5F1D14968D919C91E1
:102A44001597B901681B790BCB010FE513E39E01C0
:102A54002F5F3F4FB6018E0F9F1F0E94C11181113E
:102A640075CF69817A816E0D7F1DD40114966D93A3
:102A74007C93159712962D913C911397C901885513
:102A840091096817790708F0BECF8D919C91205267
:102A94003109AC01420F531F0E946947811156CF7F
:102AA400F4016081718182819381AC0140545109A8
:102AB400460F571F8097680F791FC5010E946C420B
:102AC400811144CFD4012D913C91119714968D918D
:102AD4009C911597AC014F5F5F4F14964D935C9397
:102AE4001597F901E80FF91F2EE2208312962D9114
:102AF4003C91139714964D915C911597C901841BD1
:102B0400950B89839A83ED91FC914E0F5F1FC90148
:102B1400805491099E012F5F3F4F60E470E08E0F57
:102B24009F1F0E94C111F4012481358189819A81FA
:102B3400820F931F848395832281338182179307A5
:102B440008F061CF20813181F901E80FF91F10826B
:102B540080E0FCCE7C01B2E0EB0EF11C3CCF0281A4
:102B64001381C12CD12C28E530E0E12CF12C46CF87
:082B7400EE24E394F12C2FCFB5
:102B7C00CF92DF92EF92FF920F931F93CF93DF933D
:102B8C00CDB7DEB72697CDBFDEBF1B821C821D8260
:102B9C001E8262EE72E70E94755A89839A830097AF
:102BAC0009F4D0C09E012F5F3F4F790100E0F7017F
:102BBC00819391937F010F5F62EE72E780E090E06A
:102BCC000E94755A009709F4E4C0033081F7E9803C
:102BDC00FA80E114F10409F4F4C0CB80DC808D811F
:102BEC009E81C114D10409F4C1C0009709F4DDC061
:102BFC000E94BE5A082F013009F4BBC008F4A2C0D1
:102C0C00043008F09FC0CB80DC8010E040E250E044
:102C1C00B70189E69AE20E945C5640E450E0B601A6
:102C2C008AE89AE20E945C561F930F9384EE92E717
:102C3C009F938F938FED9AE29F938F930E94E34D16
:102C4C000F900F900F900F900F900F9089E293E7D9
:102C5C009F938F930E943F520E942A5A0F900F907D
:102C6C0081119EC080910E2887FF07C08F778093BB
:102C7C000E280E94C55A0E947B3C0E94115610924D
:102C8C004033109241331092423310924333C12C93
:102C9C00D12C7601C394C0924433D0924533E09248
:102CAC004633F092473380E493E30E94041D109264
:102CBC003733109238331092393310923A33C09222
:102CCC003B33D0923C33E0923D33F0923E3387E37A
:102CDC0093E30E94041D1092493310924A331092D0
:102CEC004B3310924C33C0924D33D0924E33E09212
:102CFC004F33F092503389E493E30E94041D8AEF22
:102D0C0090E0A0E0B0E08093523390935333A093C3
:102D1C005433B09355338093563390935733A093D9
:102D2C005833B093593382E593E32696CDBFDEBF7B
:102D3C00DF91CF911F910F91FF90EF90DF90CF908B
:102D4C000C94041D87EE92E79F938F930E943F5241
:102D5C000F900F902696CDBFDEBFDF91CF911F91C4
:102D6C000F91FF90EF90DF90CF900895009709F0AE
:102D7C003FCF40E250E0B70189E69AE20E945C56F0
:102D8C0010928A2A81E390E08093DF2A9093E02AC4
:102D9C005DCFE980FA80E114F10409F01ECF2BCF4E
:102DAC000E94C55A0E948E545DCFC6010E94BE5A25
:102DBC009EEF980F923030F28130D9F202E010E0A1
:0C2DCC0025CFCB80DC8003E010E020CF9E
:102DD800CF92DF92EF92FF92CF93DF9380910928F1
:102DE800982F957009F461C083FF69C080910E28FF
:102DF80081FD12C0E0911432F091153209958111CC
:102E08007CC064EF71E080E090E0DF91CF91FF90AB
:102E1800EF90DF90CF9008950E94C55ADC0150963C
:102E2800ED91FC9151978081082E000C990B0E941E
:102E3800F14CC82F0E94A94E6B017C010E94975843
:102E4800672B682B692B79F4C230D9F208F4C7C014
:102E5800C33009F455C0C430A1F280910E288460B3
:102E680080930E28CECFE0911432F0911532099557
:102E7800882351F380910E28806880930E288091D2
:102E88005B3390915C33A0915D33B0915E33C8168B
:102E9800D906EA06FB06C1F2C0925B33D0925C33D6
:102EA800E0925D33F0925E33CFCFE0910832F0913B
:102EB80009326BE572E385E692E3099597CFE091D5
:102EC8001432F09115320995811190CF809109281B
:102ED80081FD8CCF40E157E260E070E085E692E347
:102EE8000E94E93080910E288F7780930E28809178
:102EF800092888608093092879CF0E94C85A81CF11
:102F0800E0911632F0911732099581117EC00E9426
:102F1800C55AEC010E94840C873059F00E94CE5AA1
:102F2800823009F478C0843021F40E9497580E94B6
:102F3800A058CE010E943F050E94CE5A0E94C55A51
:102F4800FC01C484D5840E94C55ADC011896ED9012
:102F5800FC9019970E94C55ADC015096ED91FC919E
:102F68005197808120E030E0A601B701082E000CBF
:102F7800990B0E942745E0911432F091153209957A
:102F8800882309F43ECF80910E288F7E8B7F809313
:102F98000E2885E692E30E9410538BE592E30E9487
:102FA8001053809109288B7F877F8093092884FD9F
:102FB80035C00E94A94E61317E40810591050CF40F
:102FC80020CFE0911232F09113320995E889F989FE
:102FD8008081082E000C990B0E94454412CF0E9454
:102FE800504B60910A2870910B2880910C28909181
:102FF8000D28E0910A32F0910B3209958F3F09F4C0
:103008002CCF80910E2880612BCFE0910C32F0916B
:103018000D320995F6CE0E94D15A8BCFE0910E322F
:08302800F0910F320995C5CFAC
:103030004F925F926F927F928F929F92AF92BF92C8
:10304000FF920F931F93CF93DF9300D000D0CDB7A3
:10305000DEB7F82EB62E29013A0120E030E0A901B2
:103060006CE070E0CB010E94F55820E030E0A9014F
:103070006CE870E180E090E00E94F55820E030E0DC
:10308000A9016CEA77E082E090E00E94F55821E027
:1030900030E040E050E068E171E180E090E00E94C3
:1030A0002337882391F080E02496CDBFDEBFDF91E7
:1030B000CF911F910F91FF90BF90AF909F908F90F5
:1030C0007F906F905F904F90089520E034E040E053
:1030D00050E060E074E180E090E00E9423378111CD
:1030E000E2CF64E170E180E090E00E94274B97FF1F
:1030F000F8CF6CEB77E082E090E00E94274B60FF16
:103100007BC0F11094C0BB2009F49BC090E8892ECD
:1031100099249394A12CB12CA30192016CE870E145
:1031200080E090E00E94F558609177337091783399
:103130008091793390917A336115710581059105FC
:1031400009F490C0DC01CB019F70AA27BB27803A0D
:103150009340A105B10560F0689481F809C08981A8
:103160009A81AB81BC8188169906AA06BB0699F0A4
:10317000A501940160EA74E180E090E00E94F558B6
:10318000AE014F5F5F4F60EA74E180E090E00E9423
:10319000FD58882321F321E63FE242E55FEE6CE033
:1031A00070E0CB010E94F55800ED17E010C06CE80C
:1031B00070E180E090E00E94274B663376428345C1
:1031C000924009F443C00150110909F46CCF62E048
:1031D00070E080E090E00E942C50FF2041F36CEA08
:1031E00077E082E090E00E94274B633C714C8D4574
:1031F000974D49F781E058CF0FEC17E004C001501C
:10320000110908F47ECF61E070E080E090E00E9458
:103210002C506CE070E0CB010E94274B6E39704D52
:103220008D4A904161F7012B09F06BCF3CCF2DE720
:1032300035ED4CE15CE36CEA77E082E090E00E94DF
:10324000F558812C912C5401939466CF20E030E006
:10325000A9016CE870E180E090E00E94F5580E94BE
:0A326000614F22CF0E94BD2B6DCFFD
:10326A004F4B0D00646562756720706172616D6510
:10327A00746572206D757374206265206265747757
:10328A0065656E203020284C656173742920616E53
:10329A0064203420284D6F737429200D00342E3099
:1032AA002E30007625730D0A0400332E302E31009D
:1032BA0025730D0A0400556E6B6E6F776E2E0D0A1C
:1032CA0004004572726F722067657474696E6720B4
:1032DA006B65792E0D0A04002C0025640045727274
:1032EA006F722E2057692D466920636F6D6D616E6E
:1032FA006420666F726D61742069732077696669EC
:10330A00203C737369643E5B2C3C706173733E2C82
:10331A005B61757468547970655D5D0D0A04004FD0
:10332A004B0D0A04007265736574002D2D2D2D2D29
:10333A002D2D2D2D2D2D2D2D2D2D2D2D2D2D2D2DB3
:10334A002D2D2D2D2D2D2D2D2D2D2D2D2D2D2D2DA3
:10335A002D2D2D2D2D2D2D0D0A556E6B6E6F776E21
:10336A0020636F6D6D616E642E204C697374206FDB
:10337A006620617661696C61626C6520636F6D6D50
:10338A00616E64733A0D0A72657365740D0A646539
:10339A00766963650D0A6B65790D0A7265636F6EEE
:1033AA006E6563740D0A76657273696F6E0D0A63D2
:1033BA006C695F76657273696F6E0D0A7769666903
:1033CA00203C737369643E5B2C3C706173733E2CC2
:1033DA005B61757468547970655D5D0D0A64656238
:1033EA0075670D0A2D2D2D2D2D2D2D2D2D2D2D2DC4
:1033FA002D2D2D2D2D2D2D2D2D2D2D2D2D2D2D2DF3
:10340A002D2D2D2D2D2D2D2D2D2D2D2D2D2D2D2DE2
:10341A000D0A04000D0A436F6D6D616E6420746FAE
:10342A006F206C6F6E670D007265636F6E6E6563F9
:10343A00740077696669006B65790064657669630B
:10344A006500636C695F76657273696F6E00766595
:0C345A007273696F6E0064656275670034
:103466008F929F92AF92BF92CF92DF92EF92FF928E
:103476000F931F93CF93DF938C01DC011696CD90AB
:10348600DD90ED90FC901997C0919D33D0919E33BD
:1034960014961D921C92159780916B3390916C3304
:1034A600A0916D33B0916E33C816D906EA06FB06B5
:1034B60080F1209709F494C08E819F81A885B985F3
:1034C600C816D906EA06FB0658F48AC08681978193
:1034D600A085B185C816D906EA06FB0628F0EF01D5
:1034E600EC81FD81309791F7D8011496ED93FC930A
:1034F60015970C831D8380E0DF91CF911F910F916B
:10350600FF90EF90DF90CF90BF90AF909F908F90FD
:10351600089580906B3390906C33A0906D33B0908B
:103526006E338091D733811135C0209791F0FE011B
:1035360086819781A085B18588199909AA09BB0951
:1035460086839783A087B1870480F581E02D309725
:1035560079F780916B3390916C33A0916D33B09174
:103566006E3388199909AA09BB0980936B33909326
:103576006C33A0936D33B0936E33BFEFEB1AFB0A37
:10358600C818D908EA08FB08F801C682D782E0867F
:10359600F1868FCF0E944D5AA0E0B0E0409167338C
:1035A600509168336091693370916A338417950737
:1035B600A607B70720F48FEF9FEFA0E0B0E0409199
:1035C6006733509168336091693370916A33841A16
:1035D600950AA60AB70A880E991EAA1EBB1EA5CF73
:1035E60010926733109268331092693310926A33DF
:1035F60080E090E00E94F9570E94085A8091673354
:1036060090916833A0916933B0916A330E94F9575B
:103616000E94085AE0919D33F0919E33B2E3E13A5D
:10362600FB0759F0D8011496ED93FC931597009378
:103636009D3310939E3381E05FCF0480F581E02DAA
:02364600F1CFC2
:103648002F923F924F925F926F927F928F929F92AA
:10365800AF92BF92CF92DF92EF92FF920F931F9398
:10366800CF93DF93CDB7DEB7CC53D140CDBFDEBF0C
:103678008E01035D1E4F20E1D8011D922A95E9F7BE
:103688004E01B9EC8B0E911C24E6F40111922A9597
:10369800E9F79E012F5F3F4F190128ECD1011D92D8
:1036A8002A95E9F708965C0141E050E0B8010E94CC
:1036B800623AB8016F5F7F4F41E050E0C5010E9458
:1036C800623AF801A181A7FF1AC07801F2E0EF0E73
:1036D800F11C280125E0420E511C41E050E0B701E1
:1036E800C5010E94623AF70180813FEFE31AF30AAD
:1036F80087FF03C04E145F0481F7F801A181F80128
:10370800C12CD12C7601412C512C3201439402C09A
:10371800A2813196AF77B0E0A30192010E945F5772
:10372800C60ED71EE81EF91ED301C201880F991FC5
:10373800AA1FBB1F880F991FAA1FBB1F880F991F9D
:10374800AA1FBB1F880F991FAA1FBB1F880F991F8D
:10375800AA1FBB1F880F991FAA1FBB1F2C013D0161
:10376800440C551C661C771C818187FDD1CF42E033
:1037780050E0B8016B5F7F4FC5010E94623AD801E3
:1037880017968D929C92189715964D915C91169765
:10379800542745275427B401C5010E94623AF8010D
:1037A800858196819827892798274EEF5FEF6FEFDD
:1037B8007FEF481B590B610971094C0D5D1D6E1D8A
:1037C8007F1D24863586B101C5010E94623A0E9498
:1037D800395AFC01892B51F0D8011C966D917C91C6
:1037E8001D9717968D919C9118970995C5010E9470
:1037F800E55883E0C45CDE4FCDBFDEBFDF91CF91DB
:103808001F910F91FF90EF90DF90CF90BF90AF90F6
:103818009F908F907F906F905F904F903F902F90E8
:02382800089501
:10382A002F923F924F925F926F927F928F929F92C6
:10383A00AF92BF92CF92DF92EF92FF920F931F93B4
:10384A00CF93DF93CDB7DEB72C97CDBFDEBF962FD0
:10385A009F779A8789870115110509F4C2C0F70174
:10386A003896EC0DFD1DEB87FC87ED33F64008F02A
:10387A004BC03601680149015A01162F082F0E94D0
:10388A003853811141C02B853C85C901A0E0B0E0C5
:10389A00DC0199278827802B9C01AD01312B2D83D0
:1038AA003E834F8358876CE870E180E090E00E9485
:1038BA00F55822E030E040E050E068E770E180E04F
:1038CA0090E00E94F55819821A821B821C8207EE28
:1038DA0013E00BC08D8181FF2EC0053F81E01807E0
:1038EA0008F486C00150110978F1AE014B5F5F4FB1
:1038FA0068E770E180E090E00E94FD580E94DD5A7E
:10390A00882341F30E94A9528FEF2C96CDBFDEBFC8
:10391A00DF91CF911F910F91FF90EF90DF90CF90A1
:10392A00BF90AF909F908F907F906F905F904F90D5
:10393A003F902F900895AE014F5F5F4F60E074E0B3
:10394A0085E190E00E94FD580E94DD5A81114CC029
:10395A0029803A804B805C8021143104410451044F
:10396A0009F442C028E030E0AE01475F5F4FC20170
:10397A00B1010E94492A88E0280E311C411C511CC1
:10398A00A114B10431F09401A501C201B1010E9450
:10399A00492AC114D10451F0C201B101660D771D43
:1039AA00811D911D9701A6010E94492A89819A8148
:1039BA00AB81BC81880F991FAA1FBB1F880F991F53
:1039CA00AA1FBB1F9C01AD0122606CE670E180E07A
:1039DA0090E00E94F5580E94A9520E94DD5A8195F2
:1039EA0094CFF90138963FCF0E94A9528DEF8DCF1F
:0E39FA0061E070E080E090E00E942C5073CFFE
:103A0800CF93DF93EC018885813009F441C008F435
:103A18005FC0823001F1833009F057C083E293E33D
:103A28000E9410538DE293E30E9410538C819D8174
:103A3800AE81BF81892B8A2B8B2B09F46AC0488100
:103A480059816A817B81411551056105710509F02C
:103A580097C088E038C08FE093E30E94105389E153
:103A680093E30E9410538C819D81AE81BF81892B85
:103A78008A2B8B2B09F447C0488159816A817B8145
:103A8800411551056105710509F091C084E01BC01D
:103A98008BEF92E30E94105385E093E30E9410534A
:103AA8008C819D81AE81BF81892B8A2B8B2B99F1CB
:103AB800488159816A817B814115510561057105EC
:103AC80009F047C082E080936504DF91CF910895A3
:103AD80087EE92E30E94105381EF92E30E94105305
:103AE8008C819D81AE81BF81892B8A2B8B2BA9F07C
:103AF800488159816A817B814115510561057105AC
:103B080071F481E0E0CF84E080936604DF91CF9187
:103B1800089588E0F9CF82E0F7CF81E0F5CFC09330
:103B2800F332D093F432C093E932D093EA3284E688
:103B380095E58093F1329093F23284E595E5809390
:103B4800E7329093E83281EF92E3DF91CF910C94C2
:103B5800E930C0930733D0930833C093FD32D09334
:103B6800FE3284E895E5809305339093063384E725
:103B780095E58093FB329093FC3285E093E3E5CFA3
:103B8800C0932F33D0933033C0932533D09326334B
:103B980084EC95E580932D3390932E3384EB95E553
:103BA80080932333909324338DE293E3CECFC09355
:103BB8001B33D0931C33C0931133D093123384EA50
:103BC80095E58093193390931A3384E995E58093AA
:0C3BD8000F339093103389E193E3B7CFD3
:103BE4002F923F924F925F926F927F928F929F9209
:103BF400AF92BF92CF92DF92EF92FF920F931F93F7
:103C0400CF93DF93CDB7DEB7A597CDBFDEBF19A2A3
:103C14001AA28330B8F082EEA596CDBFDEBFDF9145
:103C2400CF911F910F91FF90EF90DF90CF90BF90B5
:103C3400AF909F908F907F906F905F904F903F9048
:103C44002F900895823009F479C00115110509F403
:103C540073C021153105F9F268012CA33DA35A0163
:103C64001B018BA3AE014F5D5F4F0E94F13E81119A
:103C7400D3CF29A13AA1C8018A0D9B1D2817390762
:103C840050F2250156944794529442947FE047227F
:103C9400452457224524E0E2FE2E612C712C812C10
:103CA400912C27C0B501681B790B8F2D90E0861BE2
:103CB400970B8601081919098017910708F48C01DC
:103CC40081E090E08C0F9D1F680F791FA8018CA1E3
:103CD4009DA1880D991D0E94B258800E911E90E2FC
:103CE400F91609F44CC09FEF691A790A8C149D04E3
:103CF40018F580E2F81639F1EF2C8E010F5F1F4F93
:103D0400262D442DB1018BA10E94042E811184CF54
:103D1400C201880F991F880F991F880F991F860D5C
:103D2400971D880F991F880F991F8A159B0508F402
:103D3400B9CF60E070E0B9CF80E06ECF603171053B
:103D440008F069CF82CF89A19AA19201220F331F73
:103D540022953295307F3227207F3227821B930BA6
:103D6400809750F63501680C791C769467947694A4
:103D7400679497E06922772454E0F52EBDCF8FEF46
:063D8400481A580AB3CFF3
:103D8A00CF92DF92EF92FF92CF93DF93CDB7DEB758
:103D9A00C057D109CDBFDEBF69017A01863009F467
:103DAA0078C0873089F1813059F0C059DF4FCDBFD3
:103DBA00DEBFDF91CF91FF90EF90DF90CF90089513
:103DCA0020E730E0AE014F5F5F4FC701B6010E94A6
:103DDA00D2438111EACFE091C133F091C2333097D7
:103DEA0021F380E7C80ED11CE11CF11CC0927B3381
:103DFA00D0927C33E0927D33F0927E33BE016F5FC6
:103E0A007F4F81E00995D1CF28E030E0AE014F5FC6
:103E1A005F4FC701B6010E94D24381112EC02D8186
:103E2A003E818F8198856B817C8149815A812115D8
:103E3A00310519F4E1E0E093EB33820F931F681721
:103E4A00790709F445C0CA0199278130910509F417
:103E5A00ACCFB8F182309105C9F1039709F049C096
:103E6A009091EB33923009F4A0CF80E0943011F0B6
:103E7A004093EB33882309F498CFE091C133F09152
:103E8A00C233309709F491CF6BEE73E387E009955B
:103E9A008CCF24E030E0AE014F5F5F4FC701B6011F
:103EAA000E94D243811181CFE091C133F091C23394
:103EBA00309709F47ACFBE016F5F7F4F86E009958C
:103ECA0074CF8091EB33813009F06FCF80E0D0CF8F
:103EDA00CA0199278130910581F2A8F082309105B3
:103EEA00B9F00397B9F49091EB33923031F281E053
:103EFA00BDCF8091EB33823009F457CF80E094E054
:103F0A009093EB33B7CF8091EB33813009F0B5CF83
:103F1A0081E0AECF8091EB33823009F4AECF81E0FD
:023F2A00EECFD8
:103F2C002F923F924F925F926F927F928F929F92BD
:103F3C00AF92BF92CF92DF92EF92FF920F931F93AB
:103F4C00CF93DF93EC018B0129013A018C819D8188
:103F5C00AE81BF8170E4C72ED12CE12CF12CC81A94
:103F6C00D90AEA0AFB0A2C153D054E055F0510F42B
:103F7C0069017A010896A601B8018C0F9D1F0E9459
:103F8C00B2588C819D81AE81BF81840D951DA61D7B
:103F9C00B71D80349105A105B105B8F48C839D83C0
:103FAC00AE83BF83DF91CF911F910F91FF90EF9064
:103FBC00DF90CF90BF90AF909F908F907F906F903D
:103FCC005F904F903F902F9008951E0188E0280E2F
:103FDC00311C21E030E040E050E0B101CE010E9404
:103FEC00C9004C185D086E087F085301420186E039
:103FFC00B694A794979487948A95D1F7B8016C0DD1
:10400C007D1DA5019401CE010E94C900D501C401FA
:10401C000196A11DB11D880F991FAA1FBB1F880FE8
:10402C00991FAA1FBB1F880F991FAA1FBB1F880FA0
:10403C00991FAA1FBB1F880F991FAA1FBB1F880F90
:10404C00991FAA1FBB1F488159816A817B81840FEC
:10405C00951FA61FB71F88839983AA83BB83B301BF
:10406C00A2014F735527662777274C835D836E8398
:10407C007F8300249694879407949694879407944E
:10408C00982C802CC80CD91CC8018C0D9D1DBC0112
:10409C00C101DF91CF911F910F91FF90EF90DF90B5
:1040AC00CF90BF90AF909F908F907F906F905F90CC
:0A40BC004F903F902F900C94B258E3
:1040C6005F926F927F928F929F92AF92BF92CF92A2
:1040D600DF92EF92FF920F931F93CF93DF9300919E
:1040E600D0EF1091D1EFC0E0E090CAEFF090CBEFA7
:1040F60098E0892E9AEE992E25E3622E23E7722EFA
:10410600F80109958823B1F0F70109958D3031F151
:104116008A30D9F1E091D333E43698F591E09E0FD9
:104126009093D333F0E0E351F04D8083F801099585
:104136008111EACF62E370E080E090E0DF91CF91F9
:104146001F910F91FF90EF90DF90CF90BF90AF90AF
:104156009F908F907F906F905F900895E091D333FA
:10416600F0E0E351F04D10829091D233911117C0D7
:104176008093D133CC23F9F01092D3331092D233FB
:10418600BFCF81E08093D233BBCFE091D333F0E051
:10419600E351F04D10829091D233992329F08EE1AC
:1041A60094E70E947840E8CF9091D1339D3001F793
:1041B6008093D133E1CF60E270E08DEE9FE20E9402
:1041C6006A575C01009719F0DC011D925D01EDEE66
:1041D600FFE201900020E9F73197ED5EFF425E2E87
:1041E60088EEC82E89EED82EC5E0D0E06FE273E7E0
:1041F60010C0B4E0CB0ED11C8C149D04F1F0F60176
:1042060060817181EB0109900020E9F72197C61BB7
:10421600D70B8DEE9FE20E94BB588111EACF5C124C
:10422600E8CFD6011296ED91FC911397309709F3DA
:10423600C50109958091D23308C07F926F920E9482
:104246003F528091D2330F900F90C1E0882309F43A
:0442560093CFA5CF8E
:10425A008F929F92AF92BF92CF92DF92EF92FF928C
:10426A000F931F93CF93DF93EC018B014C815D81F8
:10427A006E817F81C880D980EA80FB80C40ED51EFA
:10428A00E61EF71EC882D982EA82FB82CC0CDD1CAC
:10429A00EE1CFF1CCC0CDD1CEE1CFF1CCC0CDD1C28
:1042AA00EE1CFF1C87EF9FEFAFEFBFEF841B950B50
:1042BA00A60BB70B4C015D012FE382229924AA2495
:1042CA00BB24DB01CA010196A11DB11D8C839D830C
:1042DA00AE83BF83FE01E40FF51F20E82087A40107
:1042EA004C5F5F4F089660E070E08C0F9D1F0E9444
:1042FA00CF598C819D81AE81BF81880D991DAA1DE0
:10430A00BB1DAC01BD014C5F5F4F6F4F7F4FFE017C
:10431A00E40FF51FF086AC01BD014B5F5F4F6F4F95
:10432A007F4FFE01E40FF51FE086AC01BD014A5F35
:10433A005F4F6F4F7F4FFE01E40FF51FD086AC0130
:10434A00BD01485F5F4F6F4F7F4F4C835D836E8324
:10435A007F830796A11DB11DFE01E80FF91FC086D4
:10436A009A01AB0166E056954795379527956A9568
:10437A00D1F7BE01685F7F4FCE010E94C900DE01FE
:10438A00A857BF4F9801C855DF4F4D915D916D9168
:10439A007C911397C9010496FC0142934D915D915A
:1043AA006D917C911397452F562F672F77274D9341
:1043BA005D936D937C931397E217F30771F7149645
:1043CA009C01CA17DB0709F7DF91CF911F910F9163
:1043DA00FF90EF90DF90CF90BF90AF909F908F901B
:0243EA00089534
:1043EC00A8E0B0E0ECEFF1E20C941E518B01FC0163
:1043FC00608171818281938120E831E541E050E058
:10440C000E94C14D69017A012CE330E040E050E09C
:10441C000E94BA5129833A834B835C8389819A81A8
:10442C00AB81BC81F80160836CE370E00E94745333
:10443C00DC01CB01F801A1838283C601069667E0FB
:10444C0070E00E94605384832DEA3EE840E050E027
:10445C00C701B6010E94BA5129833A836D837E83CA
:10446C008F83988789819A8124E6289F6001299FF0
:10447C00D00C11246D817E818F81988525EB35E0E0
:10448C0040E050E00E94BA5129833A836D837E83C9
:10449C00E980FA80EE0CFF1CEE0CFF1CEC0CFD1CF2
:1044AC008D819E81F5E6EF16F10410F0019604C0A3
:1044BC0024E6E216F10419F021E030E002C020E01D
:1044CC0030E0A90144595E4F4817590768F46DE66E
:1044DC0071E0821B930B0E947453DC01CB01E80E3C
:1044EC00F91ECD0120E030E044E6E40EF11CF801A9
:1044FC00E682F78280879187255C3F4F821793076E
:10450C0048F46FE170E00E947453DC01CB01F801B8
:10451C00858322C069E970E0821B930B0E9474535F
:10452C00DC01CB01F82EFF0CFF0CF80E6DE370E0F4
:10453C00CD010E947453DC01CB01E82EEE0C6FE12F
:10454C0070E0CD010E947453DC01CB0122E0280FF6
:10455C00F20EFE0CF801F582A383F8011286138685
:0E456C0083818F5F83832896E8E00C9467516B
:10457A003A20426173653634206368617273206140
:10458A006674657220656E642070616464696E6722
:10459A00202D2D205374617475733A2025303258BA
:1045AA000D0A003A206465636F646564206275666B
:1045BA0066657220746F6F20736D616C6C202D2D8F
:1045CA00205374617475733A20253032580D0A00ED
:1045DA000D0025303258200025303258002573004E
:1045EA003A204E756C6C20696E7075742070617219
:1045FA00616D65746572202D2D2053746174757315
:10460A003A20253032580D0A003A20496E76616CFC
:10461A00696420626173653634206368617261631C
:10462A00746572202D2D205374617475733A202598
:10463A003032580D0A003A20496E76616C6964205E
:10464A006E756D626572206F6620626173653634BD
:10465A00206368617273202D2D2053746174757301
:10466A003A20253032580D0A003A206E65776C6977
:10467A006E652072756C65735B335D206D7573743E
:10468A00206265206D756C7469706C65206F662098
:10469A0034202D2D205374617475733A20253032DD
:1046AA00580D0A003A204C656E677468206F6620C0
:1046BA00656E636F646564206275666665722074F0
:1046CA006F6F20736D616C6C202D2D205374617493
:0B46DA0075733A20253032580D0A009D
:0146E500FFD5
:1046E600CF93DF93DC01ECE6F1E38DE1EF01199264
:1046F6008A95E9F790916C319F70906190936C3137
:1047060084E0809372319DE49093733191E59093A8
:10471600743194E590937531909376318093773127
:1047260057966D917C9158976115710539F453969A
:104736008D919C915497892B09F47BC082EC8093D0
:1047460078311D968D919C911E97982789279827D9
:104756008093793190937A315196ED91FC915297ED
:10476600E0937D31F0937E31EF0109900020E9F767
:1047760021979E012E1B3F0B20937B3130937C317A
:104786004091783146FF0CC059968D919C915A976D
:104796008093853190938631609383317093843111
:1047A60047FF45C055968D919C91569780938131D0
:1047B6009093823153966D917C91549760937F319B
:1047C600709380318091833190918431860F971F49
:1047D6000496820F931F0C968093873190938831AD
:1047E600407CB1F08091833190918431982789275C
:1047F6009827809383319093843180917F31909173
:10480600803198278927982780937F31909380312C
:1048160032272327322720937B3130937C3181E066
:104826008093DE338093D933DF91CF910895C90108
:06483600D2CF82E084CF26
:10483C00A0E0B0E0E4E2F4E20C941A51EC01EE8159
:10484C00FF818F0104561109B9F0CF0185569109EA
:10485C006C0197FF03C023E0C20ED11CD594C79402
:10486C00D594C7946CE97FEF0E947453C60ED71E83
:10487C008FEFC81AD80A02C0C12CD12C2DE631E01A
:10488C00D8010E94C8590D2C000CEE08FF08C60E6A
:10489C00D71EE81EF91E8B81082E000C990B8C017B
:1048AC00015011092D8122302CF4222379F1015E63
:1048BC001F4F2CC0CF018459984F0E948853282F2A
:1048CC0030E0255C3F4F200F311F8D81082E000CEE
:1048DC00990B02978530910514F027563F4F65E0F0
:1048EC0070E00E947453AC0197FF02C04F5F5F4FA2
:1048FC00559547959DE3949F8001959F100D11242C
:10490C00020F131F80FF02C0015E1F4FC801110F61
:10491C00AA0BBB0B9C01AD012C0D3D1D4E1D5F1D4B
:10492C0060E871E581E090E00E94D4554B015C0198
:10493C00AA810A2E000CBB0B20E13EE00E94C85954
:10494C006B017C01A9810A2E000CBB0B2CE330E01F
:10495C000E94C859C60ED71EE81EF91E6881862F04
:10496C00660F990BAA0BBB0B8C0D9D1DAE1DBF1DAD
:10497C00BC01CD01680D791D8A1D9B1DCDB7DEB71D
:06498C00ECE00C94635105
:10499200CF93DF93CDB7DEB72897CDBFDEBF0E949E
:1049A2008959811107C080E02896CDBFDEBFDF9113
:1049B200CF910895AE014B5F5F4F60E770E180E0F9
:1049C20090E00E94FD58811182C08D819E81AF814D
:1049D200B88580FF7CC09C01AD012E7F2D833E8374
:1049E2004F83588760E770E180E090E00E94F558BD
:1049F20081116DC08D819E81AF81B885B695A795D5
:104A020097958795B695A795979587959F7080936B
:104A1200BF339093C033892B09F460C043E753E35B
:104A220064E870E180E090E00E94FD5881114FC07F
:104A320060917333709174338091753390917633B2
:104A420024E030E0AE014F5F5F4F0E946F39811169
:104A52003EC06B817C818091BF339091C033861BB5
:104A6200970B0597E8F5E9818FEF8E0F873078F580
:104A72008091733390917433A0917533B0917633F2
:104A82009C01AD01285F3F4F4F4F5F4F6850710946
:104A9200F0E0EE0FFF1FE25EFC400190F081E02D9E
:104AA2008A81099581E00E94A35122E030E040E032
:104AB20050E060E770E180E090E00E94233780E000
:104AC2000E94A3510E94DD5A882309F46CCF84EF1F
:104AD2002896CDBFDEBFDF91CF9108958EEF64CFD0
:044AE2008AEF62CF26
:104AE6000F931F93CF93DF930E945E4540E054E0FF
:104AF6008EEDFA01808320E234E0F901108280E431
:104B060094E0FC011082C0E6D4E06FE06883A0E880
:104B1600B4E01C9200EA14E079E1F801708370E8D1
:104B2600FA017483F9011482FC0114826C831496D1
:104B36001C921497F8011482FA01108A118A128ABB
:104B4600138A148A158A168A178AF901108A118A15
:104B5600128A138A148A158A168A178AFC01108A01
:104B6600118A128A138A148A158A168A178A188A4B
:104B7600198A1A8A1B8A1C8A84E08D8B1E8A1F8AD0
:104B860050961C92509751961C92519752961C9291
:104B9600529753961C92539754961C925497559637
:104BA6001C92559756961C92569757961C92F8014A
:104BB600108A88E0818B9BE0928B138A148A858BFE
:104BC600868B178AE0EEF5E0118210821482158238
:104BD6001382128281E19BE58093B1339093B233C5
:104BE60082E19BE58093AF339093B03383E19BE5FD
:104BF6008093AD339093AE3384E19BE58093AB33E2
:104C06009093AC3385E19BE58093A9339093AA33C7
:104C160086E19BE58093A7339093A83380E19BE5DB
:104C26008093A5339093A633DF91CF911F910F9177
:024C36000895DF
:104C38008F929F92AF92BF92FF920F931F93CF9341
:104C4800DF93CDB7DEB7CC56D109CDBFDEBFF82E86
:104C580049015A018091D1308E3369F001ED10E39A
:104C6800F81203C019C08F15B9F00D5F1F4FF80176
:104C780080818E33C1F7F0E2FF1619F1C459DF4F76
:104C8800CDBFDEBFDF91CF911F910F91FF90BF90F5
:104C9800AF909F908F900895D80111962D913C91D7
:104CA800129721153105B9F5E091C333F091C4335A
:104CB800309709F360E070E08F2D0995F0E2FF125C
:104CC800DDCF28E030E0AE014B595F4FC501B4019C
:104CD8000E94D2438111D2CFAB962EAD3FADAB9798
:104CE800A7964EAD5FADA797C501B401685F7F4F2A
:104CF8008F4F9F4F0E94D2438111C0CFE091C333A1
:104D0800F091C433309709F4B9CFBE016B597F4F86
:104D180080E20995B3CFAE014F5F5F4FC501B40183
:104D28000E94D2438111AACFE091C333F091C433DA
:104D3800309709F4A0CFD80111968D919C911297C4
:104D4800892B09F4B7CFB1E1FB1621F0BE016F5FE3
:104D58007F4FB2CF1092EC3389818093EE33F6CF38
:104D68000F931F93CF93DF93182F092FD62FC72F99
:104D7800EEEFFAE201900020E9F73197AF014E5FBC
:104D88005A42682F792F8EEF9AE20E94BF56892BDC
:104D980041F564E274EB8D2F9C2F0E947D500097A3
:104DA80001F1FC018185813309F44FC01092403331
:104DB80010924133109242331092433381E090E0D5
:104DC800A0E0B0E08093443390934533A0934633FA
:104DD800B093473380E493E30E94041D82E08093FC
:104DE800F2330F931F938EE294EB9F938F931F924E
:104DF8001F920E94F141CF93DF938CE394EB9F9332
:104E08008F931F921F920E94F141CF93DF938CE4FE
:104E180094EB9F938F930E943F526D2F7C2F80E0DD
:104E280094E10E94845A8D2F9C2F0E94BE5A809331
:104E3800CD339093CE338DB79EB740968DBF9EBF2E
:104E4800DF91CF911F910F91089581E090E0A0E04C
:104E5800B0E08093403390934133A0934233B093B2
:104E680043331092443310924533109246331092D4
:044E78004733B0CF3D
:104E7C00CF92DF92EF92FF92CF93DF93CDB7DEB755
:104E8C006097CDBFDEBF611571058105910561F499
:104E9C00F12C8F2D6096CDBFDEBFDF91CF91FF90AF
:104EAC00EF90DF90CF9008956B017C0182E090E051
:104EBC0089839A838BEB91E00E949E5A8B839C830F
:104ECC00CD82DE82EF82F8860E94C55A6C01DC012D
:104EDC005096ED91FC9151978081082E000C990B06
:104EEC000E94F14C882369F1D6015096ED91FC910A
:104EFC0051978081082E000C990B0E94F14C813047
:104F0C0039F6D6015096ED91FC915197808140E194
:104F1C0050E0BE016F5F7F4F082E000C990B0E9472
:104F2C00CB29F82E882309F4B4CFD6015096ED91F5
:104F3C00FC9151978081082E000C990B0E944544DE
:104F4C00A8CFF601E088F18841E050E061E070E024
:104F5C0082E090E00E947D4DD7018C93D601509653
:104F6C00ED91FC915197808187FDC4CF0E94784BC5
:0E4F7C00009709F4B9CF21E0FC012483B5CFE2
:104F8A000F931F930E94025AE0919D33F0919E3332
:104F9A00309709F462C040916B3350916C33609141
:104FAA006D3370916E3386819781A085B185841B9C
:104FBA00950BA60BB70B009701E0A007B10560F5AA
:104FCA004FEF5FEF60E070E08A019B01081B190B4D
:104FDA002A0B3B0BD901C80180936733909368333E
:104FEA00A0936933B0936A3380E090E00E94F95746
:104FFA000E94085A8091673390916833A09169336F
:10500A00B0916A330E94F9570E94FC5981E080935B
:10501A00D7331F910F91089580916B3390916C3320
:10502A00A0916D33B0916E330197AF4FBF4F80930C
:10503A00A7329093A832A093A932B093AA32E093F0
:10504A00A532F093A63281EA92E380939D3390933E
:10505A009E3380E090E0DC01BFCF0E94025A10929A
:10506A006B3310926C3310926D3310926E33109230
:10507A006733109268331092693310926A33109230
:04508A00D733C7CF82
:10508E00CF92DF92EF920F93CF93DF93CDB7DEB730
:10509E002B97CDBFDEBFDC01690119821A828B838B
:1050AE009C836D830E83E1103EC082E0613278F006
:1050BE004230D9F0433008F45AC04330B1F1443095
:1050CE0009F04AC0CD2809F447C084EF46C0362FF8
:1050DE00615040F0FD01E60FF11D90819923B9F367
:1050EE006150C0F73D83423029F7C114D104A1F1BC
:1050FE001F82188619861A861B86F60101900020DB
:10510E00E9F73197EC19FD09E034F105C1F1C986D3
:10511E00DA86EB87AE01495F5F4FBE016F5F7F4F4F
:10512E000E94722E1AC080E0C1CFC114D104A1F02A
:10513E0096012E5F3F4F2F833887F6019181915054
:10514E00998790819A87AE01495F5F4FBE016F5F6D
:10515E007F4F0E946A3501C081EF2B96CDBFDEBF17
:10516E00DF91CF910F91EF90DF90CF900895413066
:10517E0099F7BE016F5F7F4F0E945A4DEECFCF82DF
:04518E00D886C8CF28
:10519200FF920F931F93CF93DF9300D000D0CDB730
:1051A200DEB7029729F4613071F0623009F44EC023
:1051B2001FEF812F2496CDBFDEBFDF91CF911F91CC
:1051C2000F91FF9008952091F03337E08BE0F82E95
:1051D20007E010E0822F90E0F89EF001F99EF00DBA
:1051E2001124EC58F04D0196B8010E947453908539
:1051F200992309F446C03150282F61F78093F03388
:105202001FEF8BE0DF011D928A95E9F781E080872D
:105212002091CB333091CC33C901019611F4C901ED
:1052220002968093CB339093CC338483958340FF53
:10523200C0CF198381E2818724E030E0AE014F5F65
:105242005F4F60E582E00E94BE52B3CF2091EF3300
:1052520034E08BE0289FF0011124EF53F04D822FB0
:1052620090E00196837099275085552371F0315053
:10527200282F79F78093EF331FEF309709F0C1CFD2
:1052820098CF8093F033122FBCCF8093EF3317E087
:04529200120FF3CF35
:10529600982F8A4291443771CFFBC0B5A5DBB5E99B
:1052A6005BC25639F111F159A4823F92D55E1CAB0F
:1052B60098AA07D8015B8312BE853124C37D0C559D
:1052C600745DBE72FEB1DE80A706DC9B74F19BC1E5
:1052D600C1699BE48647BEEFC69DC10FCCA10C24D5
:1052E6006F2CE92DAA84744ADCA9B05CDA88F976B9
:1052F60052513E986DC631A8C82703B0C77F59BF23
:10530600F30BE0C64791A7D55163CA06672929144E
:10531600850AB72738211B2EFC6D2C4D130D3853EB
:1053260054730A65BB0A6A762EC9C281852C7292AD
:10533600A1E8BFA24B661AA8708B4BC2A3516CC7DB
:1053460019E892D1240699D685350EF470A06A1014
:1053560016C1A419086C371E4C774827B5BCB03463
:10536600B30C1C394AAAD84E4FCA9C5BF36F2E6801
:10537600EE828F746F63A5781478C8840802C78C90
:10538600FAFFBE90EB6C50A4F7A3F9BEF27871C693
:10539600AF92BF92CF92DF92EF92FF920F931F933D
:1053A600CF93DF93CDB7DEB76097CDBFDEBF009159
:1053B600A3331091A4330115110509F462C0D80175
:1053C600ED91FC912081022E000C330BFC01FF278E
:1053D6002E173F07F1F00B5F1F4F59F0D8012D91A3
:1053E6003C91D9012C91022E000C330BE217F307E6
:1053F60081F08FEF9FEF6096CDBFDEBFDF91CF913B
:105406001F910F91FF90EF90DF90CF90BF90AF90DC
:105416000895FB012191319129833A83AEE0FA2E5A
:10542600DE01139601900D92FA94E1F722303105D0
:10543600F1F47A016B015C0129833A83BE016F5F47
:105446007F4F0E94983B882361F0873FA1F08A3FF7
:1054560081F6B7FC12C0CD2891F0EF2871F486E1F1
:1054660007C082E0F801848380E090E0C4CF8FE239
:105476008093DF33BECF85E0FBCF86E2F9CF81E3B1
:0C548600F7CF05E010E0FC01FF27A8CFE5
:105492009F92AF92BF92CF92DF92EF92FF920F93C1
:1054A2001F93CF93DF93CDB7DEB72897CDBFDEBF73
:1054B2006A018901FE01319697E0DF011D929A95FA
:1054C200E9F797EC99839091E73391113FC091E00E
:1054D2009093E7332130310509F44AC0212F902FF0
:1054E2008A837B836C832E839F8367E0CF010E9434
:1054F2002D51B82E81112AC081EF8887011511051F
:10550200E1F193EF992E22EFA22E0CC0B701C60152
:105512000E9477388823D1F0A886CE0CDF1C0115B3
:10552200110559F178010130B0E21B0718F0E12CA6
:1055320080E2F82E0E191F0909F4988661E070E0E6
:10554200CE0108960E9477388111E0CFBB24B39434
:105552008B2D2896CDBFDEBFDF91CF911F910F918A
:10556200FF90EF90DF90CF90BF90AF909F90089503
:1055720092E020E002E010E0B3CF83EC0E9402460A
:0A5582008111E4CF1092E733E3CF6C
:10558C00AF92BF92CF92DF92EF92FF921F93CF9385
:10559C00DF9300D0CDB7DEB76C017B01DB016D91E1
:1055AC007C91FC0182810E945A34882361F00F9017
:1055BC000F90DF91CF911F91FF90EF90DF90CF90E4
:1055CC00BF90AF900895D701ED91FC911197A280F7
:1055DC00B38012968D919C9113970E947551182F40
:1055EC00882339F0F701828193810E947D54812FA9
:1055FC00DECFF601418150E0B601D70112968D91B4
:10560C009C9113970E94F059182F8111EBCFB50183
:10561C0080E090E00E946C54B6E0CB0ED11C80EC84
:10562C00F60111928A95E9F780EC90E089839A83D0
:10563C00AE014F5F5F4FB601D70112968D919C91D1
:10564C0013970E94F659182F8111CCCF89819A811A
:10565C008430910530F4892B11F417EEC3CF16EE7C
:10566C00C1CFC6010E94A842182F8111BBCFC60121
:08567C000E94CF49182FB6CFA0
:10568400CF93DF93FC01A8E1B2E380E1ED0119922D
:105694008A95E9F78091D933833021F080E0DF9156
:1056A400CF910895909118329F709063909318321F
:1056B400808183FB882780F980FB93F990931832CB
:1056C40080818670997F982B90931832892F8E70E1
:1056D400883009F449C090818091183290FB80F998
:1056E400809318328781908580931F329093203263
:1056F400A781B085ED0109900020E9F72197CE013B
:105704008A1B9B0B80931D3290931E322081269519
:10571400237071F121852093213222852093223236
:1057240024E030E04485558540932432509325325B
:10573400438540932332BC01640F711D260F371F2C
:1057440020932632309327329827892798278093ED
:105754001D3290931E328091DE3384608093DE3359
:1057640081E0DF91CF910895977F90931832B3CF62
:0657740022E030E0D7CF77
:10577A00CF93DF9300D000D0CDB7DEB7AE014F5F35
:10578A005F4F64EF73E180E090E00E94FD58882348
:10579A0049F060E070E0CB012496CDBFDEBFDF9117
:1057AA00CF91089547E753E360E070E180E090E02D
:1057BA000E94FD588111EDCF809177339091783313
:1057CA00A0917933B0917A33803A22E0920720E1AE
:1057DA00A207B105C9F0803B22E0920720E1A207A7
:1057EA00B10521F1A07FBC01CD01856060937733BB
:1057FA00709378338093793390937A332496CDBF1C
:10580A00DEBFDF91CF91089589819A81AB81BC81F6
:10581A000197A105B10529F061EA72E085E190E0FE
:10582A00E5CF60EA72E085E190E0E0CF89819A8174
:10583A00AB81BC8183309105A105B10549F004977C
:10584A00A105B10551F062EB72E085E190E0CECF9F
:10585A0060EB72E085E190E0C9CF61EB72E085E12F
:04586A0090E0C4CF37
:10586E00BF92CF92DF92EF92FF920F931F93CF933F
:10587E00DF93C4E127C0BC01CD0124E09595879547
:10588E00779567952A95D1F70E9431422DEC3CEC25
:10589E004CE45DE30E94BA5A9B01AC01C701B6010C
:1058AE000E94A6590E94AC59609387337093883337
:1058BE008093893390938A338AE090E00E94545704
:1058CE00C150D1F165E088E10E94D446A0E0B0E07D
:1058DE0033E1880F991FAA1FBB1F3A95D1F79C0180
:1058EE00AD0163E155954795379527956A95D1F7A3
:1058FE00A4E6B0E00E945F57B62E072F182FD92FBF
:10590E0060918733709188338091893390918A3377
:10591E000E94314223E333E343E75FE30E94BA5A26
:10592E006B017C018B2D902FA12FBD2FB7FFA3CF25
:10593E000F96A11DB11D9FCF809187339091883313
:10594E00DF91CF911F910F91FF90EF90DF90CF904D
:04595E00BF90089559
:10596200CF92DF92EF92FF920F931F93CF93DF9329
:10597200CDB7DEB72897CDBFDEBF87FD5FC061150B
:10598200710509F45BC04115510509F457C0A82FF0
:10599200082E000CBB0B9BE08902F0011124EC588D
:1059A200F04D9085992309F449C060837183428345
:1059B2005383928591112AC091E09287918590FD3F
:1059C20032C066E4011511052105310591F5CC249B
:1059D200CA94DC2C7601C982DA82EB82FC828D8346
:1059E2008BE08A9FF0018B9FF00D1124EC58F04D53
:1059F200848195818F83988728E030E0AE014F5FE4
:105A02005F4F82E00E94BE5281111AC080E0289648
:105A1200CDBFDEBFDF91CF911F910F91FF90EF902D
:105A2200DF90CF9008956DE4011511052105310530
:105A320071F209831A832B833C83D1CF8AEFE7CF9C
:045A420082EFE5CF3B
:105A460080916B318E7F80936B318091673190911D
:105A560068318130910509F12091A4082B7F2093AC
:105A6600A40801978093673190936831E09165317E
